:100000000C945A00189500001895000018950000EF
:10001000189500001895000018950000189500002C
:10002000189500001895000018950000189500001C
:10003000189500001895000018950000189500000C
:1000400018950000189500001895000018950000FC
:1000500018950000189500001895000018950000EC
:1000600018950000189500001895000018950000DC
:1000700018950000189500001895000018950000CC
:1000800018950000189500001895000018950000BC
:1000900018950000189500001895000018950000AC
:1000A000189500001895000018950000189500009C
:1000B000189500008FE58DBFC0E4E8E34E2E88E080
:1000C0008EBFD8E0F8E05F2EEEEFF7E0A0E6B0E0FC
:1000D00088278D933197E9F786E089B980E080BD64
:1000E00088E18AB90E94E9006624D098D198D89A0C
:1000F000D99A0E94DE000E94E300EEEEF2E00E9438
:10010000D30088EC90E00E946401D098A0E6B0E0B3
:100110009C9197FF04C0C89B10C09F779C93C8997F
:100120000CC08EE19F9399270E9464019F91C8990A
:1001300004C090689C930E94B900D198A0E6B0E0FA
:100140009C9196FF04C0C99B10C09F7B9C93C9994A
:100150000CC08EE19F9399270E9464019F91C999D9
:1001600004C090649C930E94BC000C948500F89499
:10017000FFCF0E94DE0008950E94E300EEEFF2E060
:100180000E94D3000E94DC00ECE0F3E00E94D30068
:100190000E94DA00EEEFF2E00E94D30088EC90E0DB
:1001A0000E94640108950E947301802D11F059D0BE
:1001B000FACF089580E95BC080EC59C081E057D048
:1001C00005D080E854C080E852D0089583E0992794
:1001D0007BC08AEF90E00E9464018F9A8E9A8D9A7C
:1001E0008C9A8B9A8A9A929885E090E00E9464019A
:1001F000939897989698959A949A939AEF93FF93D9
:10020000E5E1F0E00E945801FF91EF91939859D0F9
:10021000939AEF93FF93E5E1F0E00E945801FF917C
:10022000EF9193984ED0939AEF93FF93E5E1F0E02E
:100230000E945801FF91EF91939843D09498939A1C
:10024000EF93FF93E5E1F0E00E945801FF91EF91F9
:10025000939837D088E20BD08EE009D086E007D0A3
:100260000895929A829505D004D02BD00895929843
:10027000F9CF859510F4949A01C09498859510F45F
:10028000959A01C09598859510F4969A01C0969814
:10029000859510F4979A01C09798939AEF93FF93DE
:1002A000E5E1F0E00E945801FF91EF9193980895E5
:1002B0003197F1F70895689462F80895E89462F828
:1002C000089581E090E000C0EF93FF93EE27E82BC4
:1002D000E92B31F0EAEFF0E03197F1F70197D1F730
:1002E000FF91EF910895C8953196002008955354D9
:1002F0004152542050524F4752414D5500003D3D10
:100300003D3D3D3D3D3D3D3D3D3D00002B2B2B2BDF
:0A0310002B2B2B2B2B2B2B2B00008B
:00000001FF
